{
  "_format": "hh-sol-artifact-1",
  "contractName": "WavePortal",
  "sourceName": "contracts/WavePortal.sol",
  "abi": [
    {
      "inputs": [],
      "stateMutability": "nonpayable",
      "type": "constructor"
    },
    {
      "inputs": [],
      "name": "allPeopleThatWaved",
      "outputs": [
        {
          "internalType": "address[]",
          "name": "",
          "type": "address[]"
        }
      ],
      "stateMutability": "view",
      "type": "function"
    },
    {
      "inputs": [],
      "name": "totalNumberWaves",
      "outputs": [
        {
          "internalType": "uint256",
          "name": "",
          "type": "uint256"
        }
      ],
      "stateMutability": "view",
      "type": "function"
    },
    {
      "inputs": [],
      "name": "wave",
      "outputs": [],
      "stateMutability": "nonpayable",
      "type": "function"
    }
  ],
  "bytecode": "0x608060405234801561001057600080fd5b506103a2806100206000396000f3fe608060405234801561001057600080fd5b50600436106100415760003560e01c8063644f00a1146100465780636fe15b4414610064578063d08139d61461006e575b600080fd5b61004e61008c565b60405161005b9190610235565b60405180910390f35b61006c61011a565b005b610076610198565b6040516100839190610257565b60405180910390f35b6060600180548060200260200160405190810160405280929190818152602001828054801561011057602002820191906000526020600020905b8160009054906101000a900473ffffffffffffffffffffffffffffffffffffffff1673ffffffffffffffffffffffffffffffffffffffff16815260200190600101908083116100c6575b5050505050905090565b600160008082825461012c91906102ab565b925050819055506001339080600181540180825580915050600190039060005260206000200160009091909190916101000a81548173ffffffffffffffffffffffffffffffffffffffff021916908373ffffffffffffffffffffffffffffffffffffffff160217905550565b60008054905090565b60006101ad83836101b9565b60208301905092915050565b6101c281610301565b82525050565b60006101d382610282565b6101dd818561029a565b93506101e883610272565b8060005b8381101561021957815161020088826101a1565b975061020b8361028d565b9250506001810190506101ec565b5085935050505092915050565b61022f81610333565b82525050565b6000602082019050818103600083015261024f81846101c8565b905092915050565b600060208201905061026c6000830184610226565b92915050565b6000819050602082019050919050565b600081519050919050565b6000602082019050919050565b600082825260208201905092915050565b60006102b682610333565b91506102c183610333565b9250827fffffffffffffffffffffffffffffffffffffffffffffffffffffffffffffffff038211156102f6576102f561033d565b5b828201905092915050565b600061030c82610313565b9050919050565b600073ffffffffffffffffffffffffffffffffffffffff82169050919050565b6000819050919050565b7f4e487b7100000000000000000000000000000000000000000000000000000000600052601160045260246000fdfea2646970667358221220c2b0fb2f55736e865ea1cad860119902c4284238e2fa947d0d8661e06601238c64736f6c63430008040033",
  "linkReferences": {},
  "deployedLinkReferences": {}
}